{
  "contractName": "RemittancePayment",
  "abi": [
    {
      "inputs": [],
      "stateMutability": "nonpayable",
      "type": "constructor"
    },
    {
      "inputs": [],
      "name": "InvalidExchangeRate",
      "type": "error"
    },
    {
      "inputs": [],
      "name": "InvalidOracleAddress",
      "type": "error"
    },
    {
      "inputs": [
        {
          "internalType": "uint256",
          "name": "amount",
          "type": "uint256"
        }
      ],
      "name": "InvalidPaymentAmount",
      "type": "error"
    },
    {
      "inputs": [],
      "name": "UnauthorizedAccess",
      "type": "error"
    },
    {
      "inputs": [
        {
          "internalType": "string",
          "name": "currency",
          "type": "string"
        }
      ],
      "name": "UnsupportedCurrency",
      "type": "error"
    },
    {
      "anonymous": false,
      "inputs": [
        {
          "indexed": true,
          "internalType": "string",
          "name": "currency",
          "type": "string"
        },
        {
          "indexed": true,
          "internalType": "address",
          "name": "oracleAddress",
          "type": "address"
        }
      ],
      "name": "CurrencyOracleUpdated",
      "type": "event"
    },
    {
      "anonymous": false,
      "inputs": [
        {
          "indexed": false,
          "internalType": "uint256",
          "name": "newFeePercentage",
          "type": "uint256"
        }
      ],
      "name": "FeePercentageUpdated",
      "type": "event"
    },
    {
      "anonymous": false,
      "inputs": [
        {
          "indexed": true,
          "internalType": "address",
          "name": "previousOwner",
          "type": "address"
        },
        {
          "indexed": true,
          "internalType": "address",
          "name": "newOwner",
          "type": "address"
        }
      ],
      "name": "OwnershipTransferred",
      "type": "event"
    },
    {
      "anonymous": false,
      "inputs": [
        {
          "indexed": false,
          "internalType": "address",
          "name": "account",
          "type": "address"
        }
      ],
      "name": "Paused",
      "type": "event"
    },
    {
      "anonymous": false,
      "inputs": [
        {
          "indexed": true,
          "internalType": "bytes32",
          "name": "paymentId",
          "type": "bytes32"
        },
        {
          "indexed": true,
          "internalType": "address",
          "name": "recipient",
          "type": "address"
        },
        {
          "indexed": false,
          "internalType": "uint256",
          "name": "amount",
          "type": "uint256"
        }
      ],
      "name": "PaymentClaimed",
      "type": "event"
    },
    {
      "anonymous": false,
      "inputs": [
        {
          "indexed": true,
          "internalType": "bytes32",
          "name": "paymentId",
          "type": "bytes32"
        },
        {
          "indexed": true,
          "internalType": "address",
          "name": "sender",
          "type": "address"
        },
        {
          "indexed": true,
          "internalType": "address",
          "name": "recipient",
          "type": "address"
        },
        {
          "indexed": false,
          "internalType": "uint256",
          "name": "amount",
          "type": "uint256"
        }
      ],
      "name": "PaymentSent",
      "type": "event"
    },
    {
      "anonymous": false,
      "inputs": [
        {
          "indexed": true,
          "internalType": "bytes32",
          "name": "role",
          "type": "bytes32"
        },
        {
          "indexed": true,
          "internalType": "bytes32",
          "name": "previousAdminRole",
          "type": "bytes32"
        },
        {
          "indexed": true,
          "internalType": "bytes32",
          "name": "newAdminRole",
          "type": "bytes32"
        }
      ],
      "name": "RoleAdminChanged",
      "type": "event"
    },
    {
      "anonymous": false,
      "inputs": [
        {
          "indexed": true,
          "internalType": "bytes32",
          "name": "role",
          "type": "bytes32"
        },
        {
          "indexed": true,
          "internalType": "address",
          "name": "account",
          "type": "address"
        },
        {
          "indexed": true,
          "internalType": "address",
          "name": "sender",
          "type": "address"
        }
      ],
      "name": "RoleGranted",
      "type": "event"
    },
    {
      "anonymous": false,
      "inputs": [
        {
          "indexed": true,
          "internalType": "bytes32",
          "name": "role",
          "type": "bytes32"
        },
        {
          "indexed": true,
          "internalType": "address",
          "name": "account",
          "type": "address"
        },
        {
          "indexed": true,
          "internalType": "address",
          "name": "sender",
          "type": "address"
        }
      ],
      "name": "RoleRevoked",
      "type": "event"
    },
    {
      "anonymous": false,
      "inputs": [
        {
          "indexed": false,
          "internalType": "address",
          "name": "account",
          "type": "address"
        }
      ],
      "name": "Unpaused",
      "type": "event"
    },
    {
      "inputs": [],
      "name": "DEFAULT_ADMIN_ROLE",
      "outputs": [
        {
          "internalType": "bytes32",
          "name": "",
          "type": "bytes32"
        }
      ],
      "stateMutability": "view",
      "type": "function"
    },
    {
      "inputs": [],
      "name": "MAX_PAYMENT_AMOUNT",
      "outputs": [
        {
          "internalType": "uint256",
          "name": "",
          "type": "uint256"
        }
      ],
      "stateMutability": "view",
      "type": "function"
    },
    {
      "inputs": [],
      "name": "MIN_PAYMENT_AMOUNT",
      "outputs": [
        {
          "internalType": "uint256",
          "name": "",
          "type": "uint256"
        }
      ],
      "stateMutability": "view",
      "type": "function"
    },
    {
      "inputs": [],
      "name": "OWNER_ROLE",
      "outputs": [
        {
          "internalType": "bytes32",
          "name": "",
          "type": "bytes32"
        }
      ],
      "stateMutability": "view",
      "type": "function"
    },
    {
      "inputs": [],
      "name": "PAYMENT_DURATION",
      "outputs": [
        {
          "internalType": "uint256",
          "name": "",
          "type": "uint256"
        }
      ],
      "stateMutability": "view",
      "type": "function"
    },
    {
      "inputs": [
        {
          "internalType": "address",
          "name": "",
          "type": "address"
        }
      ],
      "name": "balances",
      "outputs": [
        {
          "internalType": "uint256",
          "name": "",
          "type": "uint256"
        }
      ],
      "stateMutability": "view",
      "type": "function"
    },
    {
      "inputs": [
        {
          "internalType": "string",
          "name": "",
          "type": "string"
        }
      ],
      "name": "currencyOracles",
      "outputs": [
        {
          "internalType": "address",
          "name": "",
          "type": "address"
        }
      ],
      "stateMutability": "view",
      "type": "function"
    },
    {
      "inputs": [],
      "name": "feePercentage",
      "outputs": [
        {
          "internalType": "uint256",
          "name": "",
          "type": "uint256"
        }
      ],
      "stateMutability": "view",
      "type": "function"
    },
    {
      "inputs": [
        {
          "internalType": "bytes32",
          "name": "role",
          "type": "bytes32"
        }
      ],
      "name": "getRoleAdmin",
      "outputs": [
        {
          "internalType": "bytes32",
          "name": "",
          "type": "bytes32"
        }
      ],
      "stateMutability": "view",
      "type": "function"
    },
    {
      "inputs": [
        {
          "internalType": "bytes32",
          "name": "role",
          "type": "bytes32"
        },
        {
          "internalType": "address",
          "name": "account",
          "type": "address"
        }
      ],
      "name": "grantRole",
      "outputs": [],
      "stateMutability": "nonpayable",
      "type": "function"
    },
    {
      "inputs": [
        {
          "internalType": "bytes32",
          "name": "role",
          "type": "bytes32"
        },
        {
          "internalType": "address",
          "name": "account",
          "type": "address"
        }
      ],
      "name": "hasRole",
      "outputs": [
        {
          "internalType": "bool",
          "name": "",
          "type": "bool"
        }
      ],
      "stateMutability": "view",
      "type": "function"
    },
    {
      "inputs": [],
      "name": "owner",
      "outputs": [
        {
          "internalType": "address",
          "name": "",
          "type": "address"
        }
      ],
      "stateMutability": "view",
      "type": "function"
    },
    {
      "inputs": [],
      "name": "paused",
      "outputs": [
        {
          "internalType": "bool",
          "name": "",
          "type": "bool"
        }
      ],
      "stateMutability": "view",
      "type": "function"
    },
    {
      "inputs": [
        {
          "internalType": "bytes32",
          "name": "",
          "type": "bytes32"
        }
      ],
      "name": "payments",
      "outputs": [
        {
          "internalType": "address",
          "name": "sender",
          "type": "address"
        },
        {
          "internalType": "address",
          "name": "recipient",
          "type": "address"
        },
        {
          "internalType": "uint256",
          "name": "amount",
          "type": "uint256"
        },
        {
          "internalType": "bool",
          "name": "claimed",
          "type": "bool"
        },
        {
          "internalType": "uint256",
          "name": "expiration",
          "type": "uint256"
        }
      ],
      "stateMutability": "view",
      "type": "function"
    },
    {
      "inputs": [],
      "name": "renounceOwnership",
      "outputs": [],
      "stateMutability": "nonpayable",
      "type": "function"
    },
    {
      "inputs": [
        {
          "internalType": "bytes32",
          "name": "role",
          "type": "bytes32"
        },
        {
          "internalType": "address",
          "name": "account",
          "type": "address"
        }
      ],
      "name": "renounceRole",
      "outputs": [],
      "stateMutability": "nonpayable",
      "type": "function"
    },
    {
      "inputs": [
        {
          "internalType": "bytes32",
          "name": "role",
          "type": "bytes32"
        },
        {
          "internalType": "address",
          "name": "account",
          "type": "address"
        }
      ],
      "name": "revokeRole",
      "outputs": [],
      "stateMutability": "nonpayable",
      "type": "function"
    },
    {
      "inputs": [
        {
          "internalType": "bytes4",
          "name": "interfaceId",
          "type": "bytes4"
        }
      ],
      "name": "supportsInterface",
      "outputs": [
        {
          "internalType": "bool",
          "name": "",
          "type": "bool"
        }
      ],
      "stateMutability": "view",
      "type": "function"
    },
    {
      "inputs": [
        {
          "internalType": "address",
          "name": "newOwner",
          "type": "address"
        }
      ],
      "name": "transferOwnership",
      "outputs": [],
      "stateMutability": "nonpayable",
      "type": "function"
    },
    {
      "inputs": [
        {
          "internalType": "address",
          "name": "_recipient",
          "type": "address"
        },
        {
          "internalType": "bytes32",
          "name": "_paymentId",
          "type": "bytes32"
        },
        {
          "internalType": "string",
          "name": "_currency",
          "type": "string"
        },
        {
          "internalType": "uint256",
          "name": "_amount",
          "type": "uint256"
        }
      ],
      "name": "sendPayment",
      "outputs": [],
      "stateMutability": "payable",
      "type": "function"
    },
    {
      "inputs": [
        {
          "internalType": "bytes32",
          "name": "_paymentId",
          "type": "bytes32"
        }
      ],
      "name": "claimPayment",
      "outputs": [],
      "stateMutability": "nonpayable",
      "type": "function"
    },
    {
      "inputs": [
        {
          "internalType": "string",
          "name": "_currency",
          "type": "string"
        }
      ],
      "name": "getExchangeRate",
      "outputs": [
        {
          "internalType": "uint256",
          "name": "",
          "type": "uint256"
        }
      ],
      "stateMutability": "view",
      "type": "function"
    },
    {
      "inputs": [
        {
          "internalType": "string",
          "name": "_currency",
          "type": "string"
        },
        {
          "internalType": "address",
          "name": "_oracleAddress",
          "type": "address"
        }
      ],
      "name": "setCurrencyOracle",
      "outputs": [],
      "stateMutability": "nonpayable",
      "type": "function"
    },
    {
      "inputs": [
        {
          "internalType": "uint256",
          "name": "_newFeePercentage",
          "type": "uint256"
        }
      ],
      "name": "setFeePercentage",
      "outputs": [],
      "stateMutability": "nonpayable",
      "type": "function"
    },
    {
      "inputs": [],
      "name": "pause",
      "outputs": [],
      "stateMutability": "nonpayable",
      "type": "function"
    },
    {
      "inputs": [],
      "name": "unpause",
      "outputs": [],
      "stateMutability": "nonpayable",
      "type": "function"
    },
    {
      "inputs": [
        {
          "internalType": "uint256",
          "name": "_amount",
          "type": "uint256"
        }
      ],
      "name": "withdraw",
      "outputs": [],
      "stateMutability": "nonpayable",
      "type": "function"
    }
  ],
  "bytecode": "0x6080604052600160035534801562000015575f80fd5b50600180819055505f60025f6101000a81548160ff021916908315150217905550620000566200004a6200008e60201b60201c565b6200009560201b60201c565b620000887fb19546dff01e856fb3f010c267a7b1c60363cf8a4664e21cc89c26224620214e336200015a60201b60201c565b620002be565b5f33905090565b5f600260019054906101000a900473ffffffffffffffffffffffffffffffffffffffff16905081600260016101000a81548173ffffffffffffffffffffffffffffffffffffffff021916908373ffffffffffffffffffffffffffffffffffffffff1602179055508173ffffffffffffffffffffffffffffffffffffffff168173ffffffffffffffffffffffffffffffffffffffff167f8be0079c531659141344cd1fd0a4f28419497f9722a3daafe3b4186f6b6457e060405160405180910390a35050565b6200016c82826200017060201b60201c565b5050565b6200018282826200025b60201b60201c565b620002575760015f808481526020019081526020015f205f015f8373ffffffffffffffffffffffffffffffffffffffff1673ffffffffffffffffffffffffffffffffffffffff1681526020019081526020015f205f6101000a81548160ff021916908315150217905550620001fc6200008e60201b60201c565b73ffffffffffffffffffffffffffffffffffffffff168173ffffffffffffffffffffffffffffffffffffffff16837f2f8788117e7eff1d82e926ec794901d17c78024a50270940304540a733656f0d60405160405180910390a45b5050565b5f805f8481526020019081526020015f205f015f8373ffffffffffffffffffffffffffffffffffffffff1673ffffffffffffffffffffffffffffffffffffffff1681526020019081526020015f205f9054906101000a900460ff16905092915050565b612e5280620002cc5f395ff3fe60806040526004361061019b575f3560e01c80635d293cd7116100eb578063a217fddf11610089578063d547741f11610063578063d547741f1461057f578063e58378bb146105a7578063f2fde38b146105d1578063f4b54314146105f95761019b565b8063a217fddf14610503578063aa86c4381461052d578063ae06c1b7146105575761019b565b80638456cb59116100c55780638456cb591461045d5780638da5cb5b1461047357806391d148541461049d578063a001ecdd146104d95761019b565b80635d293cd714610403578063715018a61461041f5780637808cf1d146104355761019b565b80632e1a7d4d116101585780633f4ba83a116101325780633f4ba83a1461035d5780634b67689e146103735780635197f2d5146103af5780635c975abb146103d95761019b565b80632e1a7d4d146102e55780632f2ff15d1461030d57806336568abe146103355761019b565b806301ffc9a71461019f5780630716326d146101db5780631f922e5f1461021b578063248a9ca31461024557806327e235e3146102815780632db050d1146102bd575b5f80fd5b3480156101aa575f80fd5b506101c560048036038101906101c09190611def565b610635565b6040516101d29190611e34565b60405180910390f35b3480156101e6575f80fd5b5061020160048036038101906101fc9190611e80565b6106ae565b604051610212959493929190611f02565b60405180910390f35b348015610226575f80fd5b5061022f61072a565b60405161023c9190611f53565b60405180910390f35b348015610250575f80fd5b5061026b60048036038101906102669190611e80565b610735565b6040516102789190611f7b565b60405180910390f35b34801561028c575f80fd5b506102a760048036038101906102a29190611fbe565b610751565b6040516102b49190611f53565b60405180910390f35b3480156102c8575f80fd5b506102e360048036038101906102de9190611e80565b610766565b005b3480156102f0575f80fd5b5061030b60048036038101906103069190612013565b61097b565b005b348015610318575f80fd5b50610333600480360381019061032e919061203e565b610b41565b005b348015610340575f80fd5b5061035b6004803603810190610356919061203e565b610b62565b005b348015610368575f80fd5b50610371610be5565b005b34801561037e575f80fd5b50610399600480360381019061039491906121b8565b610c1a565b6040516103a691906121ff565b60405180910390f35b3480156103ba575f80fd5b506103c3610c62565b6040516103d09190611f53565b60405180910390f35b3480156103e4575f80fd5b506103ed610c6f565b6040516103fa9190611e34565b60405180910390f35b61041d60048036038101906104189190612218565b610c84565b005b34801561042a575f80fd5b506104336110da565b005b348015610440575f80fd5b5061045b60048036038101906104569190612298565b6110ed565b005b348015610468575f80fd5b50610471611236565b005b34801561047e575f80fd5b5061048761126b565b60405161049491906121ff565b60405180910390f35b3480156104a8575f80fd5b506104c360048036038101906104be919061203e565b611294565b6040516104d09190611e34565b60405180910390f35b3480156104e4575f80fd5b506104ed6112f7565b6040516104fa9190611f53565b60405180910390f35b34801561050e575f80fd5b506105176112fd565b6040516105249190611f7b565b60405180910390f35b348015610538575f80fd5b50610541611303565b60405161054e9190611f53565b60405180910390f35b348015610562575f80fd5b5061057d60048036038101906105789190612013565b61130a565b005b34801561058a575f80fd5b506105a560048036038101906105a0919061203e565b6113ba565b005b3480156105b2575f80fd5b506105bb6113db565b6040516105c89190611f7b565b60405180910390f35b3480156105dc575f80fd5b506105f760048036038101906105f29190611fbe565b6113ff565b005b348015610604575f80fd5b5061061f600480360381019061061a91906121b8565b611481565b60405161062c9190611f53565b60405180910390f35b5f7f7965db0b000000000000000000000000000000000000000000000000000000007bffffffffffffffffffffffffffffffffffffffffffffffffffffffff1916827bffffffffffffffffffffffffffffffffffffffffffffffffffffffff191614806106a757506106a68261157a565b5b9050919050565b6004602052805f5260405f205f91509050805f015f9054906101000a900473ffffffffffffffffffffffffffffffffffffffff1690806001015f9054906101000a900473ffffffffffffffffffffffffffffffffffffffff1690806002015490806003015f9054906101000a900460ff16908060040154905085565b662386f26fc1000081565b5f805f8381526020019081526020015f20600101549050919050565b6005602052805f5260405f205f915090505481565b61076e6115e3565b61077661162d565b5f60045f8381526020019081526020015f2090503373ffffffffffffffffffffffffffffffffffffffff16816001015f9054906101000a900473ffffffffffffffffffffffffffffffffffffffff1673ffffffffffffffffffffffffffffffffffffffff161461081b576040517f08c379a000000000000000000000000000000000000000000000000000000000815260040161081290612372565b60405180910390fd5b806003015f9054906101000a900460ff161561086c576040517f08c379a0000000000000000000000000000000000000000000000000000000008152600401610863906123da565b60405180910390fd5b80600401544211156108b3576040517f08c379a00000000000000000000000000000000000000000000000000000000081526004016108aa90612442565b60405180910390fd5b6001816003015f6101000a81548160ff021916908315150217905550806002015460055f3373ffffffffffffffffffffffffffffffffffffffff1673ffffffffffffffffffffffffffffffffffffffff1681526020019081526020015f205f82825401925050819055503373ffffffffffffffffffffffffffffffffffffffff16827e9aa28285e2f2f93f61312a2c375d49710858b14618190f383029b03c6ec3f483600201546040516109679190611f53565b60405180910390a35061097861167c565b50565b7fb19546dff01e856fb3f010c267a7b1c60363cf8a4664e21cc89c26224620214e6109a581611685565b6109ad61162d565b8160055f6109b961126b565b73ffffffffffffffffffffffffffffffffffffffff1673ffffffffffffffffffffffffffffffffffffffff1681526020019081526020015f20541015610a34576040517f08c379a0000000000000000000000000000000000000000000000000000000008152600401610a2b906124aa565b60405180910390fd5b8160055f610a4061126b565b73ffffffffffffffffffffffffffffffffffffffff1673ffffffffffffffffffffffffffffffffffffffff1681526020019081526020015f205f82825403925050819055505f610a8e61126b565b73ffffffffffffffffffffffffffffffffffffffff1683604051610ab1906124f5565b5f6040518083038185875af1925050503d805f8114610aeb576040519150601f19603f3d011682016040523d82523d5f602084013e610af0565b606091505b5050905080610b34576040517f08c379a0000000000000000000000000000000000000000000000000000000008152600401610b2b90612553565b60405180910390fd5b50610b3d61167c565b5050565b610b4a82610735565b610b5381611685565b610b5d8383611699565b505050565b610b6a611773565b73ffffffffffffffffffffffffffffffffffffffff168173ffffffffffffffffffffffffffffffffffffffff1614610bd7576040517f08c379a0000000000000000000000000000000000000000000000000000000008152600401610bce906125e1565b60405180910390fd5b610be1828261177a565b5050565b7fb19546dff01e856fb3f010c267a7b1c60363cf8a4664e21cc89c26224620214e610c0f81611685565b610c17611854565b50565b6006818051602081018201805184825260208301602085012081835280955050505050505f915054906101000a900473ffffffffffffffffffffffffffffffffffffffff1681565b68056bc75e2d6310000081565b5f60025f9054906101000a900460ff16905090565b610c8c6115e3565b610c9461162d565b5f73ffffffffffffffffffffffffffffffffffffffff1660045f8581526020019081526020015f205f015f9054906101000a900473ffffffffffffffffffffffffffffffffffffffff1673ffffffffffffffffffffffffffffffffffffffff1614610d34576040517f08c379a0000000000000000000000000000000000000000000000000000000008152600401610d2b90612649565b60405180910390fd5b662386f26fc10000811080610d51575068056bc75e2d6310000081115b15610d9357806040517f1fe86218000000000000000000000000000000000000000000000000000000008152600401610d8a9190611f53565b60405180910390fd5b80341015610dd6576040517f08c379a0000000000000000000000000000000000000000000000000000000008152600401610dcd906126b1565b60405180910390fd5b5f73ffffffffffffffffffffffffffffffffffffffff16600683604051610dfd919061273b565b90815260200160405180910390205f9054906101000a900473ffffffffffffffffffffffffffffffffffffffff1673ffffffffffffffffffffffffffffffffffffffff1603610e8357816040517fd8dc1a7e000000000000000000000000000000000000000000000000000000008152600401610e7a9190612789565b60405180910390fd5b5f610e8d83611481565b90505f81670de0b6b3a764000084610ea591906127d6565b610eaf9190612844565b90505f606460035483610ec291906127d6565b610ecc9190612844565b90505f8183610edb9190612874565b90508160055f610ee961126b565b73ffffffffffffffffffffffffffffffffffffffff1673ffffffffffffffffffffffffffffffffffffffff1681526020019081526020015f205f82825401925050819055506040518060a001604052803373ffffffffffffffffffffffffffffffffffffffff1681526020018973ffffffffffffffffffffffffffffffffffffffff1681526020018281526020015f1515815260200162093a8042610f8e91906128a7565b81525060045f8981526020019081526020015f205f820151815f015f6101000a81548173ffffffffffffffffffffffffffffffffffffffff021916908373ffffffffffffffffffffffffffffffffffffffff1602179055506020820151816001015f6101000a81548173ffffffffffffffffffffffffffffffffffffffff021916908373ffffffffffffffffffffffffffffffffffffffff160217905550604082015181600201556060820151816003015f6101000a81548160ff021916908315150217905550608082015181600401559050508773ffffffffffffffffffffffffffffffffffffffff163373ffffffffffffffffffffffffffffffffffffffff16887f46f2be6278706ce8c457661a34ddc64d8d34c23ebd90d4ed5f4c1a19f630a8f5846040516110c09190611f53565b60405180910390a4505050506110d461167c565b50505050565b6110e26118b5565b6110eb5f611933565b565b7fb19546dff01e856fb3f010c267a7b1c60363cf8a4664e21cc89c26224620214e61111781611685565b5f73ffffffffffffffffffffffffffffffffffffffff168273ffffffffffffffffffffffffffffffffffffffff160361117c576040517f5521068100000000000000000000000000000000000000000000000000000000815260040160405180910390fd5b8160068460405161118d919061273b565b90815260200160405180910390205f6101000a81548173ffffffffffffffffffffffffffffffffffffffff021916908373ffffffffffffffffffffffffffffffffffffffff1602179055508173ffffffffffffffffffffffffffffffffffffffff16836040516111fd919061273b565b60405180910390207f1cc0f9be332aed9063849c8fad172fd2221922fdf457e75f509dd0bb5db175b260405160405180910390a3505050565b7fb19546dff01e856fb3f010c267a7b1c60363cf8a4664e21cc89c26224620214e61126081611685565b6112686119f8565b50565b5f600260019054906101000a900473ffffffffffffffffffffffffffffffffffffffff16905090565b5f805f8481526020019081526020015f205f015f8373ffffffffffffffffffffffffffffffffffffffff1673ffffffffffffffffffffffffffffffffffffffff1681526020019081526020015f205f9054906101000a900460ff16905092915050565b60035481565b5f801b81565b62093a8081565b7fb19546dff01e856fb3f010c267a7b1c60363cf8a4664e21cc89c26224620214e61133481611685565b6064821115611378576040517f08c379a000000000000000000000000000000000000000000000000000000000815260040161136f9061294a565b60405180910390fd5b816003819055507f74516f05eb4bd2461d57aa1e935ee553f86a3e02bfed7759f2f772915de3d9be826040516113ae9190611f53565b60405180910390a15050565b6113c382610735565b6113cc81611685565b6113d6838361177a565b505050565b7fb19546dff01e856fb3f010c267a7b1c60363cf8a4664e21cc89c26224620214e81565b6114076118b5565b5f73ffffffffffffffffffffffffffffffffffffffff168173ffffffffffffffffffffffffffffffffffffffff1603611475576040517f08c379a000000000000000000000000000000000000000000000000000000000815260040161146c906129d8565b60405180910390fd5b61147e81611933565b50565b5f80600683604051611493919061273b565b90815260200160405180910390205f9054906101000a900473ffffffffffffffffffffffffffffffffffffffff1690505f8173ffffffffffffffffffffffffffffffffffffffff1663feaf968c6040518163ffffffff1660e01b815260040160a060405180830381865afa15801561150d573d5f803e3d5ffd5b505050506040513d601f19601f820116820180604052508101906115319190612a7c565b5050509150505f8113611570576040517fa2ec3a5500000000000000000000000000000000000000000000000000000000815260040160405180910390fd5b8092505050919050565b5f7f01ffc9a7000000000000000000000000000000000000000000000000000000007bffffffffffffffffffffffffffffffffffffffffffffffffffffffff1916827bffffffffffffffffffffffffffffffffffffffffffffffffffffffff1916149050919050565b6115eb610c6f565b1561162b576040517f08c379a000000000000000000000000000000000000000000000000000000000815260040161162290612b3d565b60405180910390fd5b565b600260015403611672576040517f08c379a000000000000000000000000000000000000000000000000000000000815260040161166990612ba5565b60405180910390fd5b6002600181905550565b60018081905550565b61169681611691611773565b611a5a565b50565b6116a38282611294565b61176f5760015f808481526020019081526020015f205f015f8373ffffffffffffffffffffffffffffffffffffffff1673ffffffffffffffffffffffffffffffffffffffff1681526020019081526020015f205f6101000a81548160ff021916908315150217905550611714611773565b73ffffffffffffffffffffffffffffffffffffffff168173ffffffffffffffffffffffffffffffffffffffff16837f2f8788117e7eff1d82e926ec794901d17c78024a50270940304540a733656f0d60405160405180910390a45b5050565b5f33905090565b6117848282611294565b15611850575f805f8481526020019081526020015f205f015f8373ffffffffffffffffffffffffffffffffffffffff1673ffffffffffffffffffffffffffffffffffffffff1681526020019081526020015f205f6101000a81548160ff0219169083151502179055506117f5611773565b73ffffffffffffffffffffffffffffffffffffffff168173ffffffffffffffffffffffffffffffffffffffff16837ff6391f5c32d9c69d2a47ea670b442974b53935d1edc7fd64eb21e047a839171b60405160405180910390a45b5050565b61185c611ade565b5f60025f6101000a81548160ff0219169083151502179055507f5db9ee0a495bf2e6ff9c91a7834c1ba4fdd244a5e8aa4e537bd38aeae4b073aa61189e611773565b6040516118ab91906121ff565b60405180910390a1565b6118bd611773565b73ffffffffffffffffffffffffffffffffffffffff166118db61126b565b73ffffffffffffffffffffffffffffffffffffffff1614611931576040517f08c379a000000000000000000000000000000000000000000000000000000000815260040161192890612c0d565b60405180910390fd5b565b5f600260019054906101000a900473ffffffffffffffffffffffffffffffffffffffff16905081600260016101000a81548173ffffffffffffffffffffffffffffffffffffffff021916908373ffffffffffffffffffffffffffffffffffffffff1602179055508173ffffffffffffffffffffffffffffffffffffffff168173ffffffffffffffffffffffffffffffffffffffff167f8be0079c531659141344cd1fd0a4f28419497f9722a3daafe3b4186f6b6457e060405160405180910390a35050565b611a006115e3565b600160025f6101000a81548160ff0219169083151502179055507f62e78cea01bee320cd4e420270b5ea74000d11b0c9f74754ebdbfc544b05a258611a43611773565b604051611a5091906121ff565b60405180910390a1565b611a648282611294565b611ada57611a7181611b27565b611a7e835f1c6020611b54565b604051602001611a8f929190612cbf565b6040516020818303038152906040526040517f08c379a0000000000000000000000000000000000000000000000000000000008152600401611ad19190612789565b60405180910390fd5b5050565b611ae6610c6f565b611b25576040517f08c379a0000000000000000000000000000000000000000000000000000000008152600401611b1c90612d42565b60405180910390fd5b565b6060611b4d8273ffffffffffffffffffffffffffffffffffffffff16601460ff16611b54565b9050919050565b60605f6002836002611b6691906127d6565b611b7091906128a7565b67ffffffffffffffff811115611b8957611b88612094565b5b6040519080825280601f01601f191660200182016040528015611bbb5781602001600182028036833780820191505090505b5090507f3000000000000000000000000000000000000000000000000000000000000000815f81518110611bf257611bf1612d60565b5b60200101907effffffffffffffffffffffffffffffffffffffffffffffffffffffffffffff191690815f1a9053507f780000000000000000000000000000000000000000000000000000000000000081600181518110611c5557611c54612d60565b5b60200101907effffffffffffffffffffffffffffffffffffffffffffffffffffffffffffff191690815f1a9053505f6001846002611c9391906127d6565b611c9d91906128a7565b90505b6001811115611d3c577f3031323334353637383961626364656600000000000000000000000000000000600f861660108110611cdf57611cde612d60565b5b1a60f81b828281518110611cf657611cf5612d60565b5b60200101907effffffffffffffffffffffffffffffffffffffffffffffffffffffffffffff191690815f1a905350600485901c945080611d3590612d8d565b9050611ca0565b505f8414611d7f576040517f08c379a0000000000000000000000000000000000000000000000000000000008152600401611d7690612dfe565b60405180910390fd5b8091505092915050565b5f604051905090565b5f80fd5b5f80fd5b5f7fffffffff0000000000000000000000000000000000000000000000000000000082169050919050565b611dce81611d9a565b8114611dd8575f80fd5b50565b5f81359050611de981611dc5565b92915050565b5f60208284031215611e0457611e03611d92565b5b5f611e1184828501611ddb565b91505092915050565b5f8115159050919050565b611e2e81611e1a565b82525050565b5f602082019050611e475f830184611e25565b92915050565b5f819050919050565b611e5f81611e4d565b8114611e69575f80fd5b50565b5f81359050611e7a81611e56565b92915050565b5f60208284031215611e9557611e94611d92565b5b5f611ea284828501611e6c565b91505092915050565b5f73ffffffffffffffffffffffffffffffffffffffff82169050919050565b5f611ed482611eab565b9050919050565b611ee481611eca565b82525050565b5f819050919050565b611efc81611eea565b82525050565b5f60a082019050611f155f830188611edb565b611f226020830187611edb565b611f2f6040830186611ef3565b611f3c6060830185611e25565b611f496080830184611ef3565b9695505050505050565b5f602082019050611f665f830184611ef3565b92915050565b611f7581611e4d565b82525050565b5f602082019050611f8e5f830184611f6c565b92915050565b611f9d81611eca565b8114611fa7575f80fd5b50565b5f81359050611fb881611f94565b92915050565b5f60208284031215611fd357611fd2611d92565b5b5f611fe084828501611faa565b91505092915050565b611ff281611eea565b8114611ffc575f80fd5b50565b5f8135905061200d81611fe9565b92915050565b5f6020828403121561202857612027611d92565b5b5f61203584828501611fff565b91505092915050565b5f806040838503121561205457612053611d92565b5b5f61206185828601611e6c565b925050602061207285828601611faa565b9150509250929050565b5f80fd5b5f80fd5b5f601f19601f8301169050919050565b7f4e487b71000000000000000000000000000000000000000000000000000000005f52604160045260245ffd5b6120ca82612084565b810181811067ffffffffffffffff821117156120e9576120e8612094565b5b80604052505050565b5f6120fb611d89565b905061210782826120c1565b919050565b5f67ffffffffffffffff82111561212657612125612094565b5b61212f82612084565b9050602081019050919050565b828183375f83830152505050565b5f61215c6121578461210c565b6120f2565b90508281526020810184848401111561217857612177612080565b5b61218384828561213c565b509392505050565b5f82601f83011261219f5761219e61207c565b5b81356121af84826020860161214a565b91505092915050565b5f602082840312156121cd576121cc611d92565b5b5f82013567ffffffffffffffff8111156121ea576121e9611d96565b5b6121f68482850161218b565b91505092915050565b5f6020820190506122125f830184611edb565b92915050565b5f805f80608085870312156122305761222f611d92565b5b5f61223d87828801611faa565b945050602061224e87828801611e6c565b935050604085013567ffffffffffffffff81111561226f5761226e611d96565b5b61227b8782880161218b565b925050606061228c87828801611fff565b91505092959194509250565b5f80604083850312156122ae576122ad611d92565b5b5f83013567ffffffffffffffff8111156122cb576122ca611d96565b5b6122d78582860161218b565b92505060206122e885828601611faa565b9150509250929050565b5f82825260208201905092915050565b7f4f6e6c792074686520726563697069656e742063616e20636c61696d207468655f8201527f207061796d656e74000000000000000000000000000000000000000000000000602082015250565b5f61235c6028836122f2565b915061236782612302565b604082019050919050565b5f6020820190508181035f83015261238981612350565b9050919050565b7f5061796d656e742068617320616c7265616479206265656e20636c61696d65645f82015250565b5f6123c46020836122f2565b91506123cf82612390565b602082019050919050565b5f6020820190508181035f8301526123f1816123b8565b9050919050565b7f5061796d656e74206861732065787069726564000000000000000000000000005f82015250565b5f61242c6013836122f2565b9150612437826123f8565b602082019050919050565b5f6020820190508181035f83015261245981612420565b9050919050565b7f496e73756666696369656e742062616c616e63650000000000000000000000005f82015250565b5f6124946014836122f2565b915061249f82612460565b602082019050919050565b5f6020820190508181035f8301526124c181612488565b9050919050565b5f81905092915050565b50565b5f6124e05f836124c8565b91506124eb826124d2565b5f82019050919050565b5f6124ff826124d5565b9150819050919050565b7f5769746864726177616c206661696c65640000000000000000000000000000005f82015250565b5f61253d6011836122f2565b915061254882612509565b602082019050919050565b5f6020820190508181035f83015261256a81612531565b9050919050565b7f416363657373436f6e74726f6c3a2063616e206f6e6c792072656e6f756e63655f8201527f20726f6c657320666f722073656c660000000000000000000000000000000000602082015250565b5f6125cb602f836122f2565b91506125d682612571565b604082019050919050565b5f6020820190508181035f8301526125f8816125bf565b9050919050565b7f5061796d656e7420494420616c726561647920657869737473000000000000005f82015250565b5f6126336019836122f2565b915061263e826125ff565b602082019050919050565b5f6020820190508181035f83015261266081612627565b9050919050565b7f496e73756666696369656e74207061796d656e7420616d6f756e7400000000005f82015250565b5f61269b601b836122f2565b91506126a682612667565b602082019050919050565b5f6020820190508181035f8301526126c88161268f565b9050919050565b5f81519050919050565b5f81905092915050565b5f5b838110156127005780820151818401526020810190506126e5565b5f8484015250505050565b5f612715826126cf565b61271f81856126d9565b935061272f8185602086016126e3565b80840191505092915050565b5f612746828461270b565b915081905092915050565b5f61275b826126cf565b61276581856122f2565b93506127758185602086016126e3565b61277e81612084565b840191505092915050565b5f6020820190508181035f8301526127a18184612751565b905092915050565b7f4e487b71000000000000000000000000000000000000000000000000000000005f52601160045260245ffd5b5f6127e082611eea565b91506127eb83611eea565b92508282026127f981611eea565b915082820484148315176128105761280f6127a9565b5b5092915050565b7f4e487b71000000000000000000000000000000000000000000000000000000005f52601260045260245ffd5b5f61284e82611eea565b915061285983611eea565b92508261286957612868612817565b5b828204905092915050565b5f61287e82611eea565b915061288983611eea565b92508282039050818111156128a1576128a06127a9565b5b92915050565b5f6128b182611eea565b91506128bc83611eea565b92508282019050808211156128d4576128d36127a9565b5b92915050565b7f4665652070657263656e746167652063616e6e6f7420657863656564203130305f8201527f2500000000000000000000000000000000000000000000000000000000000000602082015250565b5f6129346021836122f2565b915061293f826128da565b604082019050919050565b5f6020820190508181035f83015261296181612928565b9050919050565b7f4f776e61626c653a206e6577206f776e657220697320746865207a65726f20615f8201527f6464726573730000000000000000000000000000000000000000000000000000602082015250565b5f6129c26026836122f2565b91506129cd82612968565b604082019050919050565b5f6020820190508181035f8301526129ef816129b6565b9050919050565b5f69ffffffffffffffffffff82169050919050565b612a14816129f6565b8114612a1e575f80fd5b50565b5f81519050612a2f81612a0b565b92915050565b5f819050919050565b612a4781612a35565b8114612a51575f80fd5b50565b5f81519050612a6281612a3e565b92915050565b5f81519050612a7681611fe9565b92915050565b5f805f805f60a08688031215612a9557612a94611d92565b5b5f612aa288828901612a21565b9550506020612ab388828901612a54565b9450506040612ac488828901612a68565b9350506060612ad588828901612a68565b9250506080612ae688828901612a21565b9150509295509295909350565b7f5061757361626c653a20706175736564000000000000000000000000000000005f82015250565b5f612b276010836122f2565b9150612b3282612af3565b602082019050919050565b5f6020820190508181035f830152612b5481612b1b565b9050919050565b7f5265656e7472616e637947756172643a207265656e7472616e742063616c6c005f82015250565b5f612b8f601f836122f2565b9150612b9a82612b5b565b602082019050919050565b5f6020820190508181035f830152612bbc81612b83565b9050919050565b7f4f776e61626c653a2063616c6c6572206973206e6f7420746865206f776e65725f82015250565b5f612bf76020836122f2565b9150612c0282612bc3565b602082019050919050565b5f6020820190508181035f830152612c2481612beb565b9050919050565b7f416363657373436f6e74726f6c3a206163636f756e74200000000000000000005f82015250565b5f612c5f6017836126d9565b9150612c6a82612c2b565b601782019050919050565b7f206973206d697373696e6720726f6c65200000000000000000000000000000005f82015250565b5f612ca96011836126d9565b9150612cb482612c75565b601182019050919050565b5f612cc982612c53565b9150612cd5828561270b565b9150612ce082612c9d565b9150612cec828461270b565b91508190509392505050565b7f5061757361626c653a206e6f74207061757365640000000000000000000000005f82015250565b5f612d2c6014836122f2565b9150612d3782612cf8565b602082019050919050565b5f6020820190508181035f830152612d5981612d20565b9050919050565b7f4e487b71000000000000000000000000000000000000000000000000000000005f52603260045260245ffd5b5f612d9782611eea565b91505f8203612da957612da86127a9565b5b600182039050919050565b7f537472696e67733a20686578206c656e67746820696e73756666696369656e745f82015250565b5f612de86020836122f2565b9150612df382612db4565b602082019050919050565b5f6020820190508181035f830152612e1581612ddc565b905091905056fea26469706673582212209253cf3094adeae707fc0f977035d667f7244b399d12e25f11088a862f85a3e564736f6c63430008150033",
  "immutableReferences": {},
  "source": "// SPDX-License-Identifier: MIT\npragma solidity ^0.8.0;\n\nimport \"@chainlink/contracts/src/v0.8/interfaces/AggregatorV3Interface.sol\";\nimport \"@openzeppelin/contracts/access/Ownable.sol\";\nimport \"@openzeppelin/contracts/access/AccessControl.sol\";\nimport \"@openzeppelin/contracts/security/ReentrancyGuard.sol\";\nimport \"@openzeppelin/contracts/security/Pausable.sol\";\n\ncontract RemittancePayment is AccessControl, ReentrancyGuard, Pausable, Ownable {\n    struct Payment {\n        address sender;\n        address recipient;\n        uint256 amount;\n        bool claimed;\n        uint256 expiration;\n    }\n\n    bytes32 public constant OWNER_ROLE = keccak256(\"OWNER_ROLE\");\n    uint256 public constant MIN_PAYMENT_AMOUNT = 1e16; // 0.01 ETH\n    uint256 public constant MAX_PAYMENT_AMOUNT = 1e20; // 100 ETH\n    uint256 public constant PAYMENT_DURATION = 7 days;\n    uint256 public feePercentage = 1; // 1% fee\n\n    mapping(bytes32 => Payment) public payments;\n    mapping(address => uint256) public balances;\n    mapping(string => address) public currencyOracles;\n\n    event PaymentSent(bytes32 indexed paymentId, address indexed sender, address indexed recipient, uint256 amount);\n    event PaymentClaimed(bytes32 indexed paymentId, address indexed recipient, uint256 amount);\n    event CurrencyOracleUpdated(string indexed currency, address indexed oracleAddress);\n    event FeePercentageUpdated(uint256 newFeePercentage);\n\n    error InvalidPaymentAmount(uint256 amount);\n    error UnsupportedCurrency(string currency);\n    error InvalidExchangeRate();\n    error InvalidOracleAddress();\n    error UnauthorizedAccess();\n\n    constructor() {\n        _setupRole(OWNER_ROLE, msg.sender);\n    }\n\n    function sendPayment(address _recipient, bytes32 _paymentId, string memory _currency, uint256 _amount) external payable whenNotPaused nonReentrant {\n        if (payments[_paymentId].sender != address(0)) revert(\"Payment ID already exists\");\n        if (_amount < MIN_PAYMENT_AMOUNT || _amount > MAX_PAYMENT_AMOUNT) revert InvalidPaymentAmount(_amount);\n        if (msg.value < _amount) revert(\"Insufficient payment amount\");\n        if (currencyOracles[_currency] == address(0)) revert UnsupportedCurrency(_currency);\n\n        uint256 exchangeRate = getExchangeRate(_currency);\n        uint256 nativeAmount = (_amount * 1 ether) / exchangeRate;\n\n        uint256 fee = (nativeAmount * feePercentage) / 100;\n        uint256 remainingAmount = nativeAmount - fee;\n\n        unchecked {\n            balances[owner()] += fee;\n        }\n\n        payments[_paymentId] = Payment(msg.sender, _recipient, remainingAmount, false, block.timestamp + PAYMENT_DURATION);\n\n        emit PaymentSent(_paymentId, msg.sender, _recipient, remainingAmount);\n    }\n\n    function claimPayment(bytes32 _paymentId) external whenNotPaused nonReentrant {\n        Payment storage payment = payments[_paymentId];\n        if (payment.recipient != msg.sender) revert(\"Only the recipient can claim the payment\");\n        if (payment.claimed) revert(\"Payment has already been claimed\");\n        if (block.timestamp > payment.expiration) revert(\"Payment has expired\");\n\n        payment.claimed = true;\n\n        unchecked {\n            balances[msg.sender] += payment.amount;\n        }\n\n        emit PaymentClaimed(_paymentId, msg.sender, payment.amount);\n    }\n\n    function getExchangeRate(string memory _currency) public view returns (uint256) {\n        AggregatorV3Interface priceFeed = AggregatorV3Interface(currencyOracles[_currency]);\n        (, int256 price, , , ) = priceFeed.latestRoundData();\n        if (price <= 0) revert InvalidExchangeRate();\n        return uint256(price);\n    }\n\n    function setCurrencyOracle(string memory _currency, address _oracleAddress) external onlyRole(OWNER_ROLE) {\n        if (_oracleAddress == address(0)) revert InvalidOracleAddress();\n        currencyOracles[_currency] = _oracleAddress;\n        emit CurrencyOracleUpdated(_currency, _oracleAddress);\n    }\n\n    function setFeePercentage(uint256 _newFeePercentage) external onlyRole(OWNER_ROLE) {\n        if (_newFeePercentage > 100) revert(\"Fee percentage cannot exceed 100%\");\n        feePercentage = _newFeePercentage;\n        emit FeePercentageUpdated(_newFeePercentage);\n    }\n\n    function pause() external onlyRole(OWNER_ROLE) {\n        _pause();\n    }\n\n    function unpause() external onlyRole(OWNER_ROLE) {\n        _unpause();\n    }\n\n    function withdraw(uint256 _amount) external onlyRole(OWNER_ROLE) nonReentrant {\n        if (balances[owner()] < _amount) revert(\"Insufficient balance\");\n        \n        unchecked {\n            balances[owner()] -= _amount;\n        }\n        \n        (bool success, ) = payable(owner()).call{value: _amount}(\"\");\n        if (!success) revert(\"Withdrawal failed\");\n    }\n}",
  "sourcePath": "/Users/siya/remittance-dapp/contracts/RemittancePayment.sol",
  "compiler": {
    "name": "solc",
    "version": "0.8.21+commit.d9974bed.Emscripten.clang"
  },
  "schemaVersion": "3.4.16",
  "updatedAt": "2024-04-16T01:58:17.670Z",
  "devdoc": {
    "events": {
      "Paused(address)": {
        "details": "Emitted when the pause is triggered by `account`."
      },
      "RoleAdminChanged(bytes32,bytes32,bytes32)": {
        "details": "Emitted when `newAdminRole` is set as ``role``'s admin role, replacing `previousAdminRole` `DEFAULT_ADMIN_ROLE` is the starting admin for all roles, despite {RoleAdminChanged} not being emitted signaling this. _Available since v3.1._"
      },
      "RoleGranted(bytes32,address,address)": {
        "details": "Emitted when `account` is granted `role`. `sender` is the account that originated the contract call, an admin role bearer except when using {AccessControl-_setupRole}."
      },
      "RoleRevoked(bytes32,address,address)": {
        "details": "Emitted when `account` is revoked `role`. `sender` is the account that originated the contract call:   - if using `revokeRole`, it is the admin role bearer   - if using `renounceRole`, it is the role bearer (i.e. `account`)"
      },
      "Unpaused(address)": {
        "details": "Emitted when the pause is lifted by `account`."
      }
    },
    "kind": "dev",
    "methods": {
      "getRoleAdmin(bytes32)": {
        "details": "Returns the admin role that controls `role`. See {grantRole} and {revokeRole}. To change a role's admin, use {_setRoleAdmin}."
      },
      "grantRole(bytes32,address)": {
        "details": "Grants `role` to `account`. If `account` had not been already granted `role`, emits a {RoleGranted} event. Requirements: - the caller must have ``role``'s admin role. May emit a {RoleGranted} event."
      },
      "hasRole(bytes32,address)": {
        "details": "Returns `true` if `account` has been granted `role`."
      },
      "owner()": {
        "details": "Returns the address of the current owner."
      },
      "paused()": {
        "details": "Returns true if the contract is paused, and false otherwise."
      },
      "renounceOwnership()": {
        "details": "Leaves the contract without owner. It will not be possible to call `onlyOwner` functions. Can only be called by the current owner. NOTE: Renouncing ownership will leave the contract without an owner, thereby disabling any functionality that is only available to the owner."
      },
      "renounceRole(bytes32,address)": {
        "details": "Revokes `role` from the calling account. Roles are often managed via {grantRole} and {revokeRole}: this function's purpose is to provide a mechanism for accounts to lose their privileges if they are compromised (such as when a trusted device is misplaced). If the calling account had been revoked `role`, emits a {RoleRevoked} event. Requirements: - the caller must be `account`. May emit a {RoleRevoked} event."
      },
      "revokeRole(bytes32,address)": {
        "details": "Revokes `role` from `account`. If `account` had been granted `role`, emits a {RoleRevoked} event. Requirements: - the caller must have ``role``'s admin role. May emit a {RoleRevoked} event."
      },
      "supportsInterface(bytes4)": {
        "details": "See {IERC165-supportsInterface}."
      },
      "transferOwnership(address)": {
        "details": "Transfers ownership of the contract to a new account (`newOwner`). Can only be called by the current owner."
      }
    },
    "version": 1
  },
  "userdoc": {
    "kind": "user",
    "methods": {},
    "version": 1
  }
}